{
  "contractName": "itemManager",
  "abi": [
    {
      "anonymous": false,
      "inputs": [
        {
          "indexed": true,
          "internalType": "address",
          "name": "previousOwner",
          "type": "address"
        },
        {
          "indexed": true,
          "internalType": "address",
          "name": "newOwner",
          "type": "address"
        }
      ],
      "name": "OwnershipTransferred",
      "type": "event"
    },
    {
      "anonymous": false,
      "inputs": [
        {
          "indexed": false,
          "internalType": "uint256",
          "name": "_itemIndex",
          "type": "uint256"
        },
        {
          "indexed": false,
          "internalType": "uint256",
          "name": "_step",
          "type": "uint256"
        },
        {
          "indexed": false,
          "internalType": "address",
          "name": "_itemAddress",
          "type": "address"
        }
      ],
      "name": "SupplyChainStepStage",
      "type": "event"
    },
    {
      "inputs": [],
      "name": "isOwner",
      "outputs": [
        {
          "internalType": "bool",
          "name": "",
          "type": "bool"
        }
      ],
      "stateMutability": "view",
      "type": "function",
      "constant": true
    },
    {
      "inputs": [
        {
          "internalType": "uint256",
          "name": "",
          "type": "uint256"
        }
      ],
      "name": "items",
      "outputs": [
        {
          "internalType": "contract Item",
          "name": "_item",
          "type": "address"
        },
        {
          "internalType": "string",
          "name": "_identifier",
          "type": "string"
        },
        {
          "internalType": "uint256",
          "name": "_itemPrice",
          "type": "uint256"
        },
        {
          "internalType": "enum itemManager.itemStepStage",
          "name": "_stage",
          "type": "uint8"
        }
      ],
      "stateMutability": "view",
      "type": "function",
      "constant": true
    },
    {
      "inputs": [],
      "name": "owner",
      "outputs": [
        {
          "internalType": "address",
          "name": "",
          "type": "address"
        }
      ],
      "stateMutability": "view",
      "type": "function",
      "constant": true
    },
    {
      "inputs": [
        {
          "internalType": "string",
          "name": "_identifier",
          "type": "string"
        },
        {
          "internalType": "uint256",
          "name": "_itemPrice",
          "type": "uint256"
        }
      ],
      "name": "createItem",
      "outputs": [],
      "stateMutability": "nonpayable",
      "type": "function"
    },
    {
      "inputs": [
        {
          "internalType": "uint256",
          "name": "_itemIndex",
          "type": "uint256"
        }
      ],
      "name": "triggerPayment",
      "outputs": [],
      "stateMutability": "payable",
      "type": "function",
      "payable": true
    },
    {
      "inputs": [
        {
          "internalType": "uint256",
          "name": "_itemIndex",
          "type": "uint256"
        }
      ],
      "name": "triggerDelievery",
      "outputs": [],
      "stateMutability": "nonpayable",
      "type": "function"
    }
  ],
  "bytecode": "0x608060405234801561001057600080fd5b5061002d61002261003260201b60201c565b61003a60201b60201c565b6100fe565b600033905090565b60008060009054906101000a900473ffffffffffffffffffffffffffffffffffffffff169050816000806101000a81548173ffffffffffffffffffffffffffffffffffffffff021916908373ffffffffffffffffffffffffffffffffffffffff1602179055508173ffffffffffffffffffffffffffffffffffffffff168173ffffffffffffffffffffffffffffffffffffffff167f8be0079c531659141344cd1fd0a4f28419497f9722a3daafe3b4186f6b6457e060405160405180910390a35050565b6118d38061010d6000396000f3fe6080604052600436106200005c5760003560e01c80632e67f7751462000061578063800fb83f146200008f5780638c55174214620000af5780638da5cb5b14620000dd5780638f32d59b146200010d578063bfb231d2146200013d575b600080fd5b3480156200006e57600080fd5b506200008d6004803603810190620000879190620009c9565b62000184565b005b620000ad6004803603810190620000a79190620009c9565b62000352565b005b348015620000bc57600080fd5b50620000db6004803603810190620000d5919062000b5d565b62000530565b005b348015620000ea57600080fd5b50620000f56200073e565b60405162000104919062000c08565b60405180910390f35b3480156200011a57600080fd5b506200012562000767565b60405162000134919062000c42565b60405180910390f35b3480156200014a57600080fd5b50620001696004803603810190620001639190620009c9565b620007c7565b6040516200017b949392919062000dee565b60405180910390f35b6200018e62000767565b620001d0576040517f08c379a0000000000000000000000000000000000000000000000000000000008152600401620001c79062000e92565b60405180910390fd5b60016002811115620001e757620001e662000d6e565b5b6002600083815260200190815260200160002060030160009054906101000a900460ff16600281111562000220576200021f62000d6e565b5b1462000263576040517f08c379a00000000000000000000000000000000000000000000000000000000081526004016200025a9062000f04565b60405180910390fd5b600280600083815260200190815260200160002060030160006101000a81548160ff021916908360028111156200029f576200029e62000d6e565b5b02179055507fea02f6fd2c5eac180743904fc7b1a1b7516f1b441782469ffe441a6d622cd68a816002600084815260200190815260200160002060030160009054906101000a900460ff166002811115620002ff57620002fe62000d6e565b5b6002600085815260200190815260200160002060000160009054906101000a900473ffffffffffffffffffffffffffffffffffffffff16604051620003479392919062000f26565b60405180910390a150565b34600260008381526020019081526020016000206002015414620003ad576040517f08c379a0000000000000000000000000000000000000000000000000000000008152600401620003a49062000fb3565b60405180910390fd5b60006002811115620003c457620003c362000d6e565b5b6002600083815260200190815260200160002060030160009054906101000a900460ff166002811115620003fd57620003fc62000d6e565b5b1462000440576040517f08c379a0000000000000000000000000000000000000000000000000000000008152600401620004379062000f04565b60405180910390fd5b60016002600083815260200190815260200160002060030160006101000a81548160ff021916908360028111156200047d576200047c62000d6e565b5b02179055507fea02f6fd2c5eac180743904fc7b1a1b7516f1b441782469ffe441a6d622cd68a816002600084815260200190815260200160002060030160009054906101000a900460ff166002811115620004dd57620004dc62000d6e565b5b6002600085815260200190815260200160002060000160009054906101000a900473ffffffffffffffffffffffffffffffffffffffff16604051620005259392919062000f26565b60405180910390a150565b6200053a62000767565b6200057c576040517f08c379a0000000000000000000000000000000000000000000000000000000008152600401620005739062000e92565b60405180910390fd5b600030826001546040516200059190620008bc565b6200059f939291906200100e565b604051809103906000f080158015620005bc573d6000803e3d6000fd5b5090508060026000600154815260200190815260200160002060000160006101000a81548173ffffffffffffffffffffffffffffffffffffffff021916908373ffffffffffffffffffffffffffffffffffffffff16021790555082600260006001548152602001908152602001600020600101908051906020019062000644929190620008ca565b508160026000600154815260200190815260200160002060020181905550600060026000600154815260200190815260200160002060030160006101000a81548160ff02191690836002811115620006a157620006a062000d6e565b5b02179055507fea02f6fd2c5eac180743904fc7b1a1b7516f1b441782469ffe441a6d622cd68a60015460026000600154815260200190815260200160002060030160009054906101000a900460ff16600281111562000705576200070462000d6e565b5b83604051620007179392919062000f26565b60405180910390a16001600081548092919062000734906200107a565b9190505550505050565b60008060009054906101000a900473ffffffffffffffffffffffffffffffffffffffff16905090565b60008060009054906101000a900473ffffffffffffffffffffffffffffffffffffffff1673ffffffffffffffffffffffffffffffffffffffff16620007ab620008b4565b73ffffffffffffffffffffffffffffffffffffffff1614905090565b60026020528060005260406000206000915090508060000160009054906101000a900473ffffffffffffffffffffffffffffffffffffffff16908060010180546200081290620010f6565b80601f01602080910402602001604051908101604052809291908181526020018280546200084090620010f6565b8015620008915780601f10620008655761010080835404028352916020019162000891565b820191906000526020600020905b8154815290600101906020018083116200087357829003601f168201915b5050505050908060020154908060030160009054906101000a900460ff16905084565b600033905090565b610772806200112c83390190565b828054620008d890620010f6565b90600052602060002090601f016020900481019282620008fc576000855562000948565b82601f106200091757805160ff191683800117855562000948565b8280016001018555821562000948579182015b82811115620009475782518255916020019190600101906200092a565b5b5090506200095791906200095b565b5090565b5b80821115620009765760008160009055506001016200095c565b5090565b6000604051905090565b600080fd5b600080fd5b6000819050919050565b620009a3816200098e565b8114620009af57600080fd5b50565b600081359050620009c38162000998565b92915050565b600060208284031215620009e257620009e162000984565b5b6000620009f284828501620009b2565b91505092915050565b600080fd5b600080fd5b6000601f19601f8301169050919050565b7f4e487b7100000000000000000000000000000000000000000000000000000000600052604160045260246000fd5b62000a508262000a05565b810181811067ffffffffffffffff8211171562000a725762000a7162000a16565b5b80604052505050565b600062000a876200097a565b905062000a95828262000a45565b919050565b600067ffffffffffffffff82111562000ab85762000ab762000a16565b5b62000ac38262000a05565b9050602081019050919050565b82818337600083830152505050565b600062000af662000af08462000a9a565b62000a7b565b90508281526020810184848401111562000b155762000b1462000a00565b5b62000b2284828562000ad0565b509392505050565b600082601f83011262000b425762000b41620009fb565b5b813562000b5484826020860162000adf565b91505092915050565b6000806040838503121562000b775762000b7662000984565b5b600083013567ffffffffffffffff81111562000b985762000b9762000989565b5b62000ba68582860162000b2a565b925050602062000bb985828601620009b2565b9150509250929050565b600073ffffffffffffffffffffffffffffffffffffffff82169050919050565b600062000bf08262000bc3565b9050919050565b62000c028162000be3565b82525050565b600060208201905062000c1f600083018462000bf7565b92915050565b60008115159050919050565b62000c3c8162000c25565b82525050565b600060208201905062000c59600083018462000c31565b92915050565b6000819050919050565b600062000c8a62000c8462000c7e8462000bc3565b62000c5f565b62000bc3565b9050919050565b600062000c9e8262000c69565b9050919050565b600062000cb28262000c91565b9050919050565b62000cc48162000ca5565b82525050565b600081519050919050565b600082825260208201905092915050565b60005b8381101562000d0657808201518184015260208101905062000ce9565b8381111562000d16576000848401525b50505050565b600062000d298262000cca565b62000d35818562000cd5565b935062000d4781856020860162000ce6565b62000d528162000a05565b840191505092915050565b62000d68816200098e565b82525050565b7f4e487b7100000000000000000000000000000000000000000000000000000000600052602160045260246000fd5b6003811062000db15762000db062000d6e565b5b50565b600081905062000dc48262000d9d565b919050565b600062000dd68262000db4565b9050919050565b62000de88162000dc9565b82525050565b600060808201905062000e05600083018762000cb9565b818103602083015262000e19818662000d1c565b905062000e2a604083018562000d5d565b62000e39606083018462000ddd565b95945050505050565b7f4f776e61626c653a2063616c6c6572206973206e6f7420746865206f776e6572600082015250565b600062000e7a60208362000cd5565b915062000e878262000e42565b602082019050919050565b6000602082019050818103600083015262000ead8162000e6b565b9050919050565b7f4974656d20697320696e20667572746865722073746167650000000000000000600082015250565b600062000eec60188362000cd5565b915062000ef98262000eb4565b602082019050919050565b6000602082019050818103600083015262000f1f8162000edd565b9050919050565b600060608201905062000f3d600083018662000d5d565b62000f4c602083018562000d5d565b62000f5b604083018462000bf7565b949350505050565b7f4f6e6c792066756c6c207061796d656e74206163636570746564000000000000600082015250565b600062000f9b601a8362000cd5565b915062000fa88262000f63565b602082019050919050565b6000602082019050818103600083015262000fce8162000f8c565b9050919050565b600062000fe28262000c69565b9050919050565b600062000ff68262000fd5565b9050919050565b620010088162000fe9565b82525050565b600060608201905062001025600083018662000ffd565b62001034602083018562000d5d565b62001043604083018462000d5d565b949350505050565b7f4e487b7100000000000000000000000000000000000000000000000000000000600052601160045260246000fd5b600062001087826200098e565b91507fffffffffffffffffffffffffffffffffffffffffffffffffffffffffffffffff8203620010bc57620010bb6200104b565b5b600182019050919050565b7f4e487b7100000000000000000000000000000000000000000000000000000000600052602260045260246000fd5b600060028204905060018216806200110f57607f821691505b602082108103620011255762001124620010c7565b5b5091905056fe608060405234801561001057600080fd5b5060405161077238038061077283398181016040528101906100329190610134565b816002819055508060008190555082600360006101000a81548173ffffffffffffffffffffffffffffffffffffffff021916908373ffffffffffffffffffffffffffffffffffffffff160217905550505050610187565b600080fd5b600073ffffffffffffffffffffffffffffffffffffffff82169050919050565b60006100b98261008e565b9050919050565b60006100cb826100ae565b9050919050565b6100db816100c0565b81146100e657600080fd5b50565b6000815190506100f8816100d2565b92915050565b6000819050919050565b610111816100fe565b811461011c57600080fd5b50565b60008151905061012e81610108565b92915050565b60008060006060848603121561014d5761014c610089565b5b600061015b868287016100e9565b935050602061016c8682870161011f565b925050604061017d8682870161011f565b9150509250925092565b6105dc806101966000396000f3fe6080604052600436106100385760003560e01c80632986c0e51461024e5780633c8da5881461027957806389794d00146102a457610240565b3661024057600060015414610082576040517f08c379a00000000000000000000000000000000000000000000000000000000081526004016100799061033e565b60405180910390fd5b34600254146100c6576040517f08c379a00000000000000000000000000000000000000000000000000000000081526004016100bd906103aa565b60405180910390fd5b34600160008282546100d89190610403565b925050819055506000600360009054906101000a900473ffffffffffffffffffffffffffffffffffffffff1673ffffffffffffffffffffffffffffffffffffffff163460005460405160240161012e9190610468565b6040516020818303038152906040527f2082f967000000000000000000000000000000000000000000000000000000007bffffffffffffffffffffffffffffffffffffffffffffffffffffffff19166020820180517bffffffffffffffffffffffffffffffffffffffffffffffffffffffff83818316178352505050506040516101b891906104fd565b60006040518083038185875af1925050503d80600081146101f5576040519150601f19603f3d011682016040523d82523d6000602084013e6101fa565b606091505b505090508061023e576040517f08c379a000000000000000000000000000000000000000000000000000000000815260040161023590610586565b60405180910390fd5b005b34801561024c57600080fd5b005b34801561025a57600080fd5b506102636102cf565b6040516102709190610468565b60405180910390f35b34801561028557600080fd5b5061028e6102d5565b60405161029b9190610468565b60405180910390f35b3480156102b057600080fd5b506102b96102db565b6040516102c69190610468565b60405180910390f35b60005481565b60025481565b60015481565b600082825260208201905092915050565b7f4974656d206973207061696420616c7265616479000000000000000000000000600082015250565b60006103286014836102e1565b9150610333826102f2565b602082019050919050565b600060208201905081810360008301526103578161031b565b9050919050565b7f4f6e6c792066756c6c2070616d656e747320616c6c6f77656400000000000000600082015250565b60006103946019836102e1565b915061039f8261035e565b602082019050919050565b600060208201905081810360008301526103c381610387565b9050919050565b6000819050919050565b7f4e487b7100000000000000000000000000000000000000000000000000000000600052601160045260246000fd5b600061040e826103ca565b9150610419836103ca565b9250827fffffffffffffffffffffffffffffffffffffffffffffffffffffffffffffffff0382111561044e5761044d6103d4565b5b828201905092915050565b610462816103ca565b82525050565b600060208201905061047d6000830184610459565b92915050565b600081519050919050565b600081905092915050565b60005b838110156104b757808201518184015260208101905061049c565b838111156104c6576000848401525b50505050565b60006104d782610483565b6104e1818561048e565b93506104f1818560208601610499565b80840191505092915050565b600061050982846104cc565b915081905092915050565b7f546865207472616e73616374696f6e207761736e27742073756363657373667560008201527f6c6c2c2063616e63656c696e6700000000000000000000000000000000000000602082015250565b6000610570602d836102e1565b915061057b82610514565b604082019050919050565b6000602082019050818103600083015261059f81610563565b905091905056fea264697066735822122020d4e59f6423507908286856f51cb016be4b3a8cad12994983c355610ebc358e64736f6c634300080d0033a2646970667358221220fb49a18a9cb09af53bb6b3efb09b890e8150b4e97a1e06216032973e8fd48a9764736f6c634300080d0033",
  "immutableReferences": {},
  "source": "\r\n/*Project 2 with Solidity and Truffle\r\nSPDX-License-Identifier: MIT*/\r\npragma solidity ^0.8.11;\r\nimport \"./Ownable.sol\";\r\nimport \"./Item.sol\";\r\n\r\n\r\ncontract itemManager is Ownable\r\n{\r\n    event SupplyChainStepStage(uint _itemIndex, uint _step, address _itemAddress);\r\n    enum itemStepStage{Created, Paid, Delievered}\r\n    \r\n    struct S_Item\r\n    {\r\n        Item _item;\r\n        string _identifier;\r\n        uint _itemPrice;\r\n        itemManager.itemStepStage _stage;\r\n    }\r\n    uint itemIndex;\r\n    mapping(uint =>S_Item) public items;\r\n    \r\n    function createItem(string memory _identifier, uint _itemPrice) public onlyOwner\r\n    {\r\n        Item item = new Item(this, _itemPrice, itemIndex);\r\n        items[itemIndex]._item = item;\r\n        items[itemIndex]._identifier = _identifier;\r\n        items[itemIndex]._itemPrice = _itemPrice;\r\n        items[itemIndex]._stage = itemStepStage.Created;\r\n        emit SupplyChainStepStage(itemIndex, uint(items[itemIndex]._stage), address(item));\r\n        itemIndex++;\r\n    }\r\n    \r\n    function triggerPayment(uint _itemIndex) public payable\r\n    {\r\n        require(items[_itemIndex]._itemPrice == msg.value, \"Only full payment accepted\");\r\n        require(items[_itemIndex]._stage == itemStepStage.Created, \"Item is in further stage\");\r\n        items[_itemIndex]._stage = itemStepStage.Paid;\r\n        \r\n        emit SupplyChainStepStage(_itemIndex, uint(items[_itemIndex]._stage), address(items[_itemIndex]._item));\r\n    }\r\n    \r\n    function triggerDelievery(uint _itemIndex) public onlyOwner\r\n    {\r\n        require(items[_itemIndex]._stage == itemStepStage.Paid, \"Item is in further stage\");\r\n        items[_itemIndex]._stage = itemStepStage.Delievered;\r\n        \r\n        emit SupplyChainStepStage(_itemIndex, uint(items[_itemIndex]._stage), address(items[_itemIndex]._item));\r\n    }\r\n    \r\n}",
  "sourcePath": "C:\\Ethereum Blockchain Projects\\TruffleNewProject\\contracts\\ItemManager.sol",
  "compiler": {
    "name": "solc",
    "version": "0.8.13+commit.abaa5c0e.Emscripten.clang"
  },
  "schemaVersion": "3.4.7",
  "updatedAt": "2022-04-12T15:21:52.731Z",
  "networkType": "ethereum",
  "devdoc": {
    "kind": "dev",
    "methods": {
      "owner()": {
        "details": "Returns the address of the current owner."
      }
    },
    "version": 1
  },
  "userdoc": {
    "kind": "user",
    "methods": {},
    "version": 1
  }
}